{
  "contractName": "GasGame",
  "abi": [
    {
      "constant": false,
      "inputs": [],
      "name": "renounceOwnership",
      "outputs": [],
      "payable": false,
      "stateMutability": "nonpayable",
      "type": "function",
      "signature": "0x715018a6"
    },
    {
      "constant": true,
      "inputs": [],
      "name": "owner",
      "outputs": [
        {
          "name": "",
          "type": "address"
        }
      ],
      "payable": false,
      "stateMutability": "view",
      "type": "function",
      "signature": "0x8da5cb5b"
    },
    {
      "constant": true,
      "inputs": [],
      "name": "isOwner",
      "outputs": [
        {
          "name": "",
          "type": "bool"
        }
      ],
      "payable": false,
      "stateMutability": "view",
      "type": "function",
      "signature": "0x8f32d59b"
    },
    {
      "constant": false,
      "inputs": [
        {
          "name": "newOwner",
          "type": "address"
        }
      ],
      "name": "transferOwnership",
      "outputs": [],
      "payable": false,
      "stateMutability": "nonpayable",
      "type": "function",
      "signature": "0xf2fde38b"
    },
    {
      "inputs": [
        {
          "name": "_scoreboard",
          "type": "address"
        }
      ],
      "payable": false,
      "stateMutability": "nonpayable",
      "type": "constructor",
      "signature": "constructor"
    },
    {
      "anonymous": false,
      "inputs": [
        {
          "indexed": false,
          "name": "player",
          "type": "address"
        },
        {
          "indexed": false,
          "name": "score",
          "type": "uint256"
        }
      ],
      "name": "ScoreAdded",
      "type": "event",
      "signature": "0xc90d179edcdeaceecb36e5b60a7d34548c648d16cbfbdbc1310e1a00d11fc40d"
    },
    {
      "anonymous": false,
      "inputs": [
        {
          "indexed": true,
          "name": "previousOwner",
          "type": "address"
        },
        {
          "indexed": true,
          "name": "newOwner",
          "type": "address"
        }
      ],
      "name": "OwnershipTransferred",
      "type": "event",
      "signature": "0x8be0079c531659141344cd1fd0a4f28419497f9722a3daafe3b4186f6b6457e0"
    },
    {
      "constant": false,
      "inputs": [],
      "name": "play",
      "outputs": [],
      "payable": true,
      "stateMutability": "payable",
      "type": "function",
      "signature": "0x93e84cd9"
    },
    {
      "constant": false,
      "inputs": [
        {
          "name": "_newValue",
          "type": "uint256"
        }
      ],
      "name": "setTxValue",
      "outputs": [],
      "payable": false,
      "stateMutability": "nonpayable",
      "type": "function",
      "signature": "0x9c0602fb"
    },
    {
      "constant": true,
      "inputs": [],
      "name": "getAllPlayers",
      "outputs": [
        {
          "name": "",
          "type": "address[]"
        }
      ],
      "payable": false,
      "stateMutability": "view",
      "type": "function",
      "signature": "0xefa1c482"
    },
    {
      "constant": true,
      "inputs": [
        {
          "name": "_player",
          "type": "address"
        }
      ],
      "name": "getScore",
      "outputs": [
        {
          "name": "",
          "type": "uint256"
        }
      ],
      "payable": false,
      "stateMutability": "view",
      "type": "function",
      "signature": "0xd47875d0"
    }
  ],
  "bytecode": "0x608060405234801561001057600080fd5b50604051602080610ee68339810180604052602081101561003057600080fd5b8101908080519060200190929190505050336000806101000a81548173ffffffffffffffffffffffffffffffffffffffff021916908373ffffffffffffffffffffffffffffffffffffffff1602179055506000809054906101000a900473ffffffffffffffffffffffffffffffffffffffff1673ffffffffffffffffffffffffffffffffffffffff16600073ffffffffffffffffffffffffffffffffffffffff167f8be0079c531659141344cd1fd0a4f28419497f9722a3daafe3b4186f6b6457e060405160405180910390a380600160006101000a81548173ffffffffffffffffffffffffffffffffffffffff021916908373ffffffffffffffffffffffffffffffffffffffff1602179055504360038190555067016345785d8a000060028190555050610d82806101646000396000f3fe60806040526004361061008e576000357c0100000000000000000000000000000000000000000000000000000000900463ffffffff168063715018a6146100935780638da5cb5b146100aa5780638f32d59b1461010157806393e84cd9146101305780639c0602fb1461013a578063d47875d014610175578063efa1c482146101da578063f2fde38b14610246575b600080fd5b34801561009f57600080fd5b506100a8610297565b005b3480156100b657600080fd5b506100bf610369565b604051808273ffffffffffffffffffffffffffffffffffffffff1673ffffffffffffffffffffffffffffffffffffffff16815260200191505060405180910390f35b34801561010d57600080fd5b50610116610392565b604051808215151515815260200191505060405180910390f35b6101386103e9565b005b34801561014657600080fd5b506101736004803603602081101561015d57600080fd5b81019080803590602001909291905050506107e9565b005b34801561018157600080fd5b506101c46004803603602081101561019857600080fd5b81019080803573ffffffffffffffffffffffffffffffffffffffff169060200190929190505050610806565b6040518082815260200191505060405180910390f35b3480156101e657600080fd5b506101ef610905565b6040518080602001828103825283818151815260200191508051906020019060200280838360005b83811015610232578082015181840152602081019050610217565b505050509050019250505060405180910390f35b34801561025257600080fd5b506102956004803603602081101561026957600080fd5b81019080803573ffffffffffffffffffffffffffffffffffffffff169060200190929190505050610c3d565b005b61029f610392565b15156102aa57600080fd5b600073ffffffffffffffffffffffffffffffffffffffff166000809054906101000a900473ffffffffffffffffffffffffffffffffffffffff1673ffffffffffffffffffffffffffffffffffffffff167f8be0079c531659141344cd1fd0a4f28419497f9722a3daafe3b4186f6b6457e060405160405180910390a360008060006101000a81548173ffffffffffffffffffffffffffffffffffffffff021916908373ffffffffffffffffffffffffffffffffffffffff160217905550565b60008060009054906101000a900473ffffffffffffffffffffffffffffffffffffffff16905090565b60008060009054906101000a900473ffffffffffffffffffffffffffffffffffffffff1673ffffffffffffffffffffffffffffffffffffffff163373ffffffffffffffffffffffffffffffffffffffff1614905090565b60005a905060006153c39050600081830190506000813a02905060003482019050600254811415156104a9576040517f08c379a000000000000000000000000000000000000000000000000000000000815260040180806020018281038252602d8152602001807f546f74616c2074782076616c756520646f6573206e6f74206d6174636820657881526020017f7065637465642076616c75652e0000000000000000000000000000000000000081525060400191505060405180910390fd5b60005a9050436003541415156104c757436003819055506002810290505b600160009054906101000a900473ffffffffffffffffffffffffffffffffffffffff1673ffffffffffffffffffffffffffffffffffffffff166309c95e10336040518263ffffffff167c0100000000000000000000000000000000000000000000000000000000028152600401808273ffffffffffffffffffffffffffffffffffffffff1673ffffffffffffffffffffffffffffffffffffffff16815260200191505060206040518083038186803b15801561058257600080fd5b505afa158015610596573d6000803e3d6000fd5b505050506040513d60208110156105ac57600080fd5b8101908080519060200190929190505050151561069957600160009054906101000a900473ffffffffffffffffffffffffffffffffffffffff1673ffffffffffffffffffffffffffffffffffffffff1663b1275f9a336040518263ffffffff167c0100000000000000000000000000000000000000000000000000000000028152600401808273ffffffffffffffffffffffffffffffffffffffff1673ffffffffffffffffffffffffffffffffffffffff168152602001915050600060405180830381600087803b15801561068057600080fd5b505af1158015610694573d6000803e3d6000fd5b505050505b600160009054906101000a900473ffffffffffffffffffffffffffffffffffffffff1673ffffffffffffffffffffffffffffffffffffffff1663d119db4c33836040518363ffffffff167c0100000000000000000000000000000000000000000000000000000000028152600401808373ffffffffffffffffffffffffffffffffffffffff1673ffffffffffffffffffffffffffffffffffffffff16815260200182815260200192505050600060405180830381600087803b15801561075e57600080fd5b505af1158015610772573d6000803e3d6000fd5b505050507fc90d179edcdeaceecb36e5b60a7d34548c648d16cbfbdbc1310e1a00d11fc40d3382604051808373ffffffffffffffffffffffffffffffffffffffff1673ffffffffffffffffffffffffffffffffffffffff1681526020018281526020019250505060405180910390a1505050505050565b6107f1610392565b15156107fc57600080fd5b8060028190555050565b6000600160009054906101000a900473ffffffffffffffffffffffffffffffffffffffff1673ffffffffffffffffffffffffffffffffffffffff1663d47875d0836040518263ffffffff167c0100000000000000000000000000000000000000000000000000000000028152600401808273ffffffffffffffffffffffffffffffffffffffff1673ffffffffffffffffffffffffffffffffffffffff16815260200191505060206040518083038186803b1580156108c357600080fd5b505afa1580156108d7573d6000803e3d6000fd5b505050506040513d60208110156108ed57600080fd5b81019080805190602001909291905050509050919050565b60606000600160009054906101000a900473ffffffffffffffffffffffffffffffffffffffff1673ffffffffffffffffffffffffffffffffffffffff1663302bcc576040518163ffffffff167c010000000000000000000000000000000000000000000000000000000002815260040160206040518083038186803b15801561098d57600080fd5b505afa1580156109a1573d6000803e3d6000fd5b505050506040513d60208110156109b757600080fd5b810190808051906020019092919050505090506060816040519080825280602002602001820160405280156109fb5781602001602082028038833980820191505090505b5090506000600190505b8281111515610c34576000600160009054906101000a900473ffffffffffffffffffffffffffffffffffffffff1673ffffffffffffffffffffffffffffffffffffffff16631ace5d86836040518263ffffffff167c01000000000000000000000000000000000000000000000000000000000281526004018082815260200191505060206040518083038186803b158015610a9f57600080fd5b505afa158015610ab3573d6000803e3d6000fd5b505050506040513d6020811015610ac957600080fd5b81019080805190602001909291905050509050600160009054906101000a900473ffffffffffffffffffffffffffffffffffffffff1673ffffffffffffffffffffffffffffffffffffffff166309c95e10826040518263ffffffff167c0100000000000000000000000000000000000000000000000000000000028152600401808273ffffffffffffffffffffffffffffffffffffffff1673ffffffffffffffffffffffffffffffffffffffff16815260200191505060206040518083038186803b158015610b9757600080fd5b505afa158015610bab573d6000803e3d6000fd5b505050506040513d6020811015610bc157600080fd5b810190808051906020019092919050505015610c2657808360018403815181101515610be957fe5b9060200190602002019073ffffffffffffffffffffffffffffffffffffffff16908173ffffffffffffffffffffffffffffffffffffffff16815250505b508080600101915050610a05565b50809250505090565b610c45610392565b1515610c5057600080fd5b610c5981610c5c565b50565b600073ffffffffffffffffffffffffffffffffffffffff168173ffffffffffffffffffffffffffffffffffffffff1614151515610c9857600080fd5b8073ffffffffffffffffffffffffffffffffffffffff166000809054906101000a900473ffffffffffffffffffffffffffffffffffffffff1673ffffffffffffffffffffffffffffffffffffffff167f8be0079c531659141344cd1fd0a4f28419497f9722a3daafe3b4186f6b6457e060405160405180910390a3806000806101000a81548173ffffffffffffffffffffffffffffffffffffffff021916908373ffffffffffffffffffffffffffffffffffffffff1602179055505056fea165627a7a72305820104f6966bf7af09f6b1d10b846aa754c29302b1c8b014609361ddf874886526a0029",
  "source": "pragma solidity ^0.5;\n\nimport \"openzeppelin-solidity/contracts/ownership/Ownable.sol\";\n\n// Interface for calling the permanent storage\ncontract Scoreboard {\n    function addScore(address, uint256) public;\n    function isPlayer(address) public view returns (bool);\n    function addPlayer(address) public;\n    function playerCount() public view returns (uint256);\n    function getPlayerById(uint256) public view returns (address);\n    function getScore(address) public view returns (uint256);\n}\n\n/// @title A Contract that enforces same total value for all tx\ncontract GasGame is Ownable {\n\n    // Permanent Scoreboard\n    Scoreboard scoreboard;\n\n    // Enforced exact total value a tx must have\n    uint256 txValue;\n\n    // Last block this game was played at\n    uint256 lastBlock;\n\n    // Player played the game and got points, score is points of current round\n    event ScoreAdded(address player, uint256 score);\n\n    constructor(address _scoreboard) public {\n        // Sets the address of the highscore\n        scoreboard = Scoreboard(_scoreboard);\n        // Sets the lastBlock to a round number, so that the game takes place every tenth block (Only to make the number nice :))\n        lastBlock = block.number;\n        // Sets the enforced total value of a tx\n        txValue = 100000000000000000;\n    }\n\n    // Only allows calls on blocknumbers ending with 0\n    // Doesn't work good enough, UX is really bad, so disabled for now\n    /* modifier onlyTenthBlock() {\n        require(block.number % 10 == 0, \"This is not a tenth block.\");\n        _;\n    } */\n\n    // Enforces the exact total amount of a tx, by computing total gaslimit and used wei for purchasing gas plus remaining wei value of the tx\n    // Weakness to this aproach: The use can set a huge gaslimit which never gets consumed and so doesn't lose as much money, but they would get lower points\n    modifier onlyCorrectValue() {\n        uint256 leftover = gasleft();\n        // Gas used up to this point is always 21437 if called from an externally owned account, so no contract calls for now\n        uint256 used = 21443;\n        uint256 totalGas = leftover + used;\n        uint256 weiPayed = tx.gasprice * totalGas;\n        uint256 totalWei = weiPayed + msg.value;\n        require(totalWei == txValue, \"Total tx value does not match expected value.\");\n        _;\n    }\n\n    /// @dev Function that calculates total points for a player and saves them to the scoreboard\n    function play() public payable onlyCorrectValue{\n        uint256 score = gasleft();\n        // If last block is still the block of the last game the caller is the first one this block\n        if (lastBlock != block.number) {\n            //Set a new lastBlock so that following tx know that they aren't the first\n            lastBlock = block.number;\n            // Double the score as a reward for being the first\n            score = score * 2;\n        }\n        // Check if user is already on scoreboard\n        if (!scoreboard.isPlayer(msg.sender)) {\n            scoreboard.addPlayer(msg.sender);\n        }\n        // Add score to scoreboard\n        scoreboard.addScore(msg.sender, score);\n        emit ScoreAdded(msg.sender, score);\n    }\n\n    /// @param _newValue of the total allowed value of a single tx\n    /// @dev Sets a new value that tx must use\n    function setTxValue(uint256 _newValue) public onlyOwner {\n        txValue = _newValue;\n    }\n\n    /// @dev Convenience function to return all addresses of all players\n    /// @return an array containing all registered players\n    function getAllPlayers() public view returns (address[] memory) {\n        uint256 highestIndex = scoreboard.playerCount();\n        address[] memory allPlayers = new address[](highestIndex);\n        // Loop through the \"array\"\n        for (uint256 i = 1; i <= highestIndex; i++) {\n            address player = scoreboard.getPlayerById(i);\n            if (scoreboard.isPlayer(player)) {\n                allPlayers[i-1] = player;\n            }\n        }\n        return allPlayers;\n    }\n\n    /// @param _player address of the player\n    /// @dev Convenience function to return the total score of a single player\n    /// @return the total number of points of the player\n    function getScore(address _player) public view returns (uint256) {\n        return scoreboard.getScore(_player);\n    }\n}\n",
  "sourcePath": "/Users/maximiliann/Desktop/gasgame/truffle/contracts/GasGame.sol",
  "compiler": {
    "name": "solc",
    "version": "0.5.0+commit.1d4f565a.Emscripten.clang"
  },
  "schemaVersion": "3.0.1",
  "updatedAt": "2019-01-27T21:54:13.237Z",
  "devdoc": {
    "methods": {
      "getAllPlayers()": {
        "details": "Convenience function to return all addresses of all players",
        "return": "an array containing all registered players"
      },
      "getScore(address)": {
        "details": "Convenience function to return the total score of a single player",
        "params": {
          "_player": "address of the player"
        },
        "return": "the total number of points of the player"
      },
      "isOwner()": {
        "return": "true if `msg.sender` is the owner of the contract."
      },
      "owner()": {
        "return": "the address of the owner."
      },
      "play()": {
        "details": "Function that calculates total points for a player and saves them to the scoreboard"
      },
      "renounceOwnership()": {
        "details": "Allows the current owner to relinquish control of the contract."
      },
      "setTxValue(uint256)": {
        "details": "Sets a new value that tx must use",
        "params": {
          "_newValue": "of the total allowed value of a single tx"
        }
      },
      "transferOwnership(address)": {
        "details": "Allows the current owner to transfer control of the contract to a newOwner.",
        "params": {
          "newOwner": "The address to transfer ownership to."
        }
      }
    },
    "title": "A Contract that enforces same total value for all tx"
  },
  "userdoc": {
    "methods": {
      "renounceOwnership()": {
        "notice": "Renouncing to ownership will leave the contract without an owner. It will not be possible to call the functions with the `onlyOwner` modifier anymore."
      }
    }
  }
}